:100000000C9424010C9479090C94A0090C944C01D3
:100010000C944C010C944C010C944C010C949607DC
:100020000C944C010C944C010C944C010C949304D2
:100030000C944C010C944C010C944C010C944C010C
:100040000C94C20A0C944C010C946B020C94A60202
:100050000C944C010C944C010C944C010C944C01EC
:100060000C9459080C944C016309670967096709E6
:1000700067096709670967097708670967096709F1
:1000800067096709670967097708670967096709E1
:1000900067096709670967097F08670967096709C9
:1000A0006709670967096709A50867096709670993
:1000B00067096709670967097F08670967096709A9
:1000C0006709670967096709AB086709670967096D
:1000D0006709670967096709B10867096709670957
:1000E0006709670967096709C30867096709670935
:1000F0006709670967096709ED08670967096709FB
:100100006709670967096709B70867096709670920
:100110006709670967096709D108670967096709F6
:100120006709670967096709F008670967096709C7
:100130006709670967096709F008670967096709B7
:100140006709670967096709F008670967096709A7
:100150006709670967096709F00867096709670997
:100160006709670967096709F9086709670967097E
:1001700067096709670967092A096709670967093C
:100180006709670967096709F9086709670967095E
:1001900067096709670967092A096709670967091C
:1001A0006709670967096709110967096709670925
:1001B00067096709670967092E09670967096709F8
:1001C00067096709670967092E09670967096709E8
:1001D00067096709670967094309670967096709C3
:1001E00067096709670967095D0967096709670999
:1001F00067096709670967095D09020000000800CF
:1002000002010000030407000000000000000001DC
:10021000020408102040800102040810200102049A
:10022000081020040404040404040402020202026C
:100230000203030303030300000000250028002B32
:100240000000CC025503BD0A11241FBECFEFD8E039
:10025000DEBFCDBF11E0A0E0B1E0EAECF9E102C001
:1002600005900D92A233B107D9F722E0A2E3B1E0E5
:1002700001C01D92AC3EB207E1F712E0C8E4D2E043
:1002800004C02297FE010E94B20CC234D107C9F704
:100290000E9412050C94E30C0C940000FC01818D6B
:1002A000228D90E0805C9F4F821B91098F7399276C
:1002B0000895FC01918D828D981731F0828DE80FA1
:1002C000F11D858D90E008958FEF9FEF0895FC015B
:1002D000918D828D981761F0828DDF01A80FB11D7D
:1002E0005D968C91928D9F5F9F73928F90E00895A1
:1002F0008FEF9FEF0895FC01848DDF01A80FB11DE2
:10030000A35ABF4F2C91848D90E001968F73907803
:10031000848FA689B7892C93A089B1898C91806438
:100320008C93938D848D981306C00288F389E02DF9
:1003300080818F7D80830895CF93DF93EC01888D3A
:1003400081110BC01BC00FB607FC09C0808185FF5F
:1003500006C00EC0CE010E947B01EA89FB89808124
:1003600085FDF1CFA889B9898C9186FFECCF06C0B5
:10037000A889B9898C9185FFF2CFECCFDF91CF911D
:1003800008950F931F93CF93DF93EC01162F81E015
:10039000888F9B8D8C8D981322C0E889F989808184
:1003A00085FD24C01CC00FB607FC08C0E889F98988
:1003B000808185FF03C0CE010E947B019C8D0917BF
:1003C00091F38B8DFE01E80FF11DE35AFF4F10836F
:1003D0000B8FEA89FB898081806280830FC08B8DBF
:1003E00090E001968F739078082FE8CFEE89FF890F
:1003F0006083E889F98980818064808381E090E06E
:10040000DF91CF911F910F910895CF92DF92EF92DC
:10041000FF921F93CF93DF93EC016A017B01122FB0
:10042000E889F98982E08083411581EE58076105EA
:100430007105B1F060E079E08DE390E0A7019601ED
:100440000E948E0CBA01A90141505109610971093C
:100450007695679557954795411580E15807A8F01F
:10046000E889F989108260E874E88EE190E0A701DC
:1004700096010E948E0CBA01A901415051096109EF
:1004800071097695679557954795EC85FD8550835D
:10049000EE85FF854083188EEC89FD891083EA89FB
:1004A000FB89808180618083EA89FB898081886003
:1004B0008083EA89FB89808180688083EA89FB895F
:1004C00080818F7D8083DF91CF911F91FF90EF908E
:1004D000DF90CF9008951F920F920FB60F921124C4
:1004E0002F938F939F93AF93BF93EF93FF93E091DD
:1004F0004201F0914301808182FD17C0E0914801E3
:10050000F0914901208180914B018F5F8F73909111
:100510004C01891779F0EBE4F1E0A081B0E0AE5C2A
:10052000BE4F5D962C93808305C0E0914801F09109
:1005300049018081FF91EF91BF91AF919F918F9180
:100540002F910F900FBE0F901F9018951F920F9232
:100550000FB60F9211242F933F934F935F936F9396
:100560007F938F939F93AF93BF93EF93FF9382E318
:1005700091E00E947B01FF91EF91BF91AF919F911C
:100580008F917F916F915F914F913F912F910F903C
:100590000FBE0F901F9018951092350110923401E4
:1005A00088EE93E0A0E0B0E08093360190933701AD
:1005B000A0933801B093390189E091E09093330121
:1005C0008093320185EC90E090933F0180933E014F
:1005D00084EC90E0909341018093400180EC90E0A6
:1005E000909343018093420181EC90E09093450108
:1005F0008093440182EC90E0909347018093460100
:1006000086EC90E0909349018093480110924B0151
:1006100010924C0110924D0110924E010895AF922C
:10062000BF92CF92DF92EF92FF920F931F93CF93DF
:10063000DF935C017B01C0E0D0E000E010E0F50159
:10064000EC0FFD1F4AE050E06281C7010E9458078D
:100650006C016EE2C7010E94E2068C0D9D1D080F21
:10066000191F2196C330D10551F74AE050E0F5013A
:100670006581C7010E945807800F911FDF91CF91BC
:100680001F910F91FF90EF90DF90CF90BF90AF90B0
:1006900008950F93FC0189E191E091838083628347
:1006A0004383248305830F9108950F9300E020E096
:1006B00040E060E08FEC91E00E9449030F910895C3
:1006C0006091DF017091E001E0918802F091890270
:1006D0000190F081E02D88E892E009956091D701C2
:1006E0007091D801E0918802F09189020190F08127
:1006F000E02D88E892E009956091DB017091DC01C2
:10070000E0918802F09189020190F081E02D88E863
:1007100092E009950895109212021092110210921F
:10072000100210920F0210920E0210920D021092FF
:100730000C0210920B0210920A02109209021092FF
:10074000FE011092FD011092FC011092FB0110922B
:10075000FA011092F9011092F8011092F70110922B
:10076000F6011092F5011092F4011092F30110922B
:10077000F2011092F1011092F0011092EF0110922B
:10078000EE011092ED011092EC011092EB0110922B
:1007900008021092070210920602109205021092AF
:1007A00004021092030210920202109201021092AF
:1007B00000021092FF011092EA011092E9011092DA
:1007C000E8011092E7011092E6011092E501109203
:1007D000E4011092E3011092E2011092E101089508
:1007E0009C01220F331F220F331F95FF02C02F5F82
:1007F0003F4FB90175956795882777FD8095982FAC
:100800000E949F0B26E933E44BE05DE30E942B0C32
:100810000E946C0BCB0108958091110290911202FD
:10082000019709F07FC080910F029091100201970B
:1008300009F078C08091E9019091EA010E94F003EB
:100840009093E0018093DF018091E7019091E801AE
:100850000E94F0039093DE018093DD018091E50119
:100860009091E6010E94F0039093DC018093DB01FC
:100870008091E3019091E4010E94F0039093DA01EA
:100880008093D9018091E1019091E2010E94F003EF
:100890009093D8018093D7018091DF019091E0017E
:1008A0008F3F910539F034F08FEF90E09093E001A5
:1008B0008093DF018091DD019091DE018F3F9105F2
:1008C00039F034F08FEF90E09093DE018093DD01FA
:1008D0008091DB019091DC018F3F910539F034F07C
:1008E0008FEF90E09093DC018093DB018091D90140
:1008F0009091DA018F3F910539F034F08FEF90E05D
:100900009093DA018093D9018091D7019091D80119
:100910008F3F910539F034F08FEF90E09093D8013C
:100920008093D70108951F920F920FB60F92112452
:100930002F933F934F935F936F937F938F939F93E7
:10094000AF93BF93EF93FF938091D5019091D60120
:10095000029799F487E99AE39093D6018093D501A1
:100960002091D5013091D601E8E8F0E080819181B5
:10097000820F931F918380831EC08091D501909137
:10098000D60187399A4399F482E090E09093D6019A
:100990008093D5012091D5013091D601E8E8F0E0AF
:1009A00080819181820F931F9183808304C08BE1AA
:1009B00091E00E94B60CFF91EF91BF91AF919F9192
:1009C0008F917F916F915F914F913F912F910F90F8
:1009D0000FBE0F901F901895E1E8F0E080818360D2
:1009E0008083E0E8F0E0808180648083EFE6F0E0DF
:1009F00080818260808382E090E09093D601809332
:100A0000D501E4E8F0E0118210828081918120918B
:100A1000D5013091D601820F931F90938900809366
:100A20008800089568E070E088E892E00E94B50AC6
:100A300060E673E088E892E00E94B80A26E040E8A9
:100A400055E260E070E082E391E00E940502F894D4
:100A5000219A5798569855985498539882E085B99A
:100A600078940E948B030E94EC0404E810E0C1E03B
:100A7000D0E080911102909112020197C9F4809107
:100A80000F0290911002019799F480910D029091BC
:100A90000E02019769F480910B0290910C0201976C
:100AA00039F48091090290910A02019709F498C0E3
:100AB0004F9B0DC08091070290910802892B39F459
:100AC0008091110290911202892B09F48EC04F99E6
:100AD0000DC08091070290910802019739F480912E
:100AE000110290911202892B09F48BC04E9B0DC00C
:100AF0008091050290910602892B39F480910F02B2
:100B000090911002892B09F496C04E990DC08091E6
:100B1000050290910602019739F480910F0290919D
:100B20001002892B09F493C04D9B0DC080910302E4
:100B300090910402892B39F480910D0290910E025C
:100B4000892B09F49EC04D990DC0809103029091AC
:100B50000402019739F480910D0290910E02892BC5
:100B600009F49BC04C9B0DC0809101029091020240
:100B7000892B39F480910B0290910C02892B09F496
:100B8000A6C04C990DC0809101029091020201977C
:100B900039F480910B0290910C02892B09F4A3C0C7
:100BA0004B9B0DC08091FF0190910002892B39F47D
:100BB0008091090290910A02892B09F4AEC04B99E9
:100BC00058CF8091FF0190910002019709F051CF19
:100BD0008091090290910A02892B09F04ACFA9C09D
:100BE0000E940C040E948B0363CFF80180819181E5
:100BF0009093FE018093FD01D0930802C0930702F9
:100C000066CFF801808191819093F4018093F30184
:100C10008091F3019091F4012091FD013091FE014A
:100C2000821B930B9093EA018093E901D093120207
:100C3000C09311025BCFF801808191819093FC01F8
:100C40008093FB01D0930602C09305025ECFF801AA
:100C5000808191819093F2018093F1018091F10163
:100C60009091F2012091FB013091FC01821B930BCA
:100C70009093E8018093E701D0931002C0930F0294
:100C800053CFF801808191819093FA018093F9010B
:100C9000D0930402C093030256CFF8018081918162
:100CA0009093F0018093EF018091EF019091F0011A
:100CB0002091F9013091FA01821B930B9093E60188
:100CC0008093E501D0930E02C0930D024BCFF80143
:100CD000808191819093F8018093F701D093020273
:100CE000C09301024ECFF801808191819093EE0173
:100CF0008093ED018091ED019091EE012091F7013B
:100D00003091F801821B930B9093E4018093E301EF
:100D1000D0930C02C0930B0243CFF80180819181E4
:100D20009093F6018093F501D0930002C093FF01E8
:100D300046CFF801808191819093EC018093EB0183
:100D40008091EB019091EC012091F5013091F60139
:100D5000821B930B9093E2018093E101D0930A02EE
:100D6000C093090286CECF92DF92EF92FF920F934B
:100D70001F93CF93DF937C016A0141155105B1F0B8
:100D8000062F172FC0E0D0E0D8016D918D01D7015B
:100D9000ED91FC910190F081E02DC7010995892B1F
:100DA00039F02196CC16DD0679F702C0C0E0D0E01C
:100DB000CE01DF91CF911F910F91FF90EF90DF90C7
:100DC000CF900895DC01ED91FC910190F081E02D30
:100DD000099508958F929F92AF92BF92EF92FF92E2
:100DE0000F931F93CF93DF93CDB7DEB7A1970FB6C5
:100DF000F894DEBF0FBECDBF7C01CB01BA0119A2B2
:100E0000223008F42AE08E010F5D1F4F822E912CB4
:100E1000A12CB12CA50194010E948E0CE62F622F0B
:100E2000732F842F952F01501109EA3010F4E05DE3
:100E300001C0E95CD801EC9361157105810591054C
:100E400049F70115110591F0F80101900020E9F72B
:100E50003197AF01401B510BD701ED91FC910280FE
:100E6000F381E02DB801C701099502C080E090E050
:100E7000A1960FB6F894DEBF0FBECDBFDF91CF9124
:100E80001F910F91FF90EF90BF90AF909F908F9028
:100E900008952115310549F4DC01ED91FC91019093
:100EA000F081E02D642F099508950E94EA060895C7
:100EB0009A01462F50E060E070E00E9449070895D3
:100EC000813039F018F0823051F0089510926E00A0
:100ED0000895EFE6F0E080818D7F80830895E0E75C
:100EE000F0E080818D7F808381E08093B000E1EB32
:100EF000F0E08081887F846080831092B300089541
:100F0000CF93C82F809100018C1307C0EAEFF1E066
:100F100084919FEF9093000101C08FEF0E946007C2
:100F200060E08C2F0E943B0BCF9108951F920F928F
:100F30000FB60F9211242F933F934F935F936F93AC
:100F40007F938F939F93AF93BF93EF93FF93809182
:100F5000160290911702A0911802B0911902892BE4
:100F60008A2B8B2B51F180911302E0911402F091A6
:100F70001502908189278083809116029091170233
:100F8000A0911802B0911902181619061A061B062C
:100F9000C4F48091160290911702A0911802B091AA
:100FA00019020197A109B1098093160290931702C3
:100FB000A0931802B093190204C0809100010E940E
:100FC0008007FF91EF91BF91AF919F918F917F919A
:100FD0006F915F914F913F912F910F900FBE0F90A6
:100FE0001F9018951092870281E0809385021092DD
:100FF000840261E082E10E943B0B61E083E10E9498
:101000003B0BE9EBF0E080818E7F808380818D7FD8
:10101000808388E48093B80085E48093BC000895C1
:10102000880F8093BA00089540913C02262F30E04B
:10103000240F311D21323105ECF420918702243038
:10104000D9F4662381F0E82FF92F80E090E0309109
:101050003C022191DC01A25CBD4FA30FB11D2C937A
:1010600001968617A0F380913C02680F60933C02C2
:1010700080E0089581E0089582E0089590938102D0
:101080008093800208959093830280938202089552
:1010900085ED8093BC00ECEBF0E0808184FDFDCF1A
:1010A00010928702089585EC8093BC00109287020D
:1010B00008951F920F920FB60F9211242F933F9312
:1010C0004F935F936F937F938F939F93AF93BF9350
:1010D000EF93FF938091B900887F90E0893C910560
:1010E00008F0F5C0FC01EC5CFF4F0C94B00C809153
:1010F00086028093BB0085EC8093BC00E8C0909191
:101100005F0280915E02981780F4E0915F0281E0B7
:101110008E0F80935F02F0E0E05AFD4F8081809354
:10112000BB0085EC8093BC00D2C0809185028823EF
:1011300019F00E944808CBC081E08093840284EAC1
:101140008093BC0010928702C2C080E280931A0292
:101150000E944808BCC080E380931A020E9448089D
:10116000B6C088E380931A020E945308B0C0E09191
:101170005F0281E08E0F80935F028091BB00F0E000
:10118000E05AFD4F808390915F0280915E02981734
:1011900020F485EC8093BC009AC085E88093BC0065
:1011A00096C0E0915F0281E08E0F80935F02809194
:1011B000BB00F0E0E05AFD4F8083809185028823D8
:1011C00019F00E94480883C081E08093840284EA79
:1011D0008093BC00109287027AC00E94480877C0B2
:1011E00083E08093870210921B0285EC8093BC0001
:1011F0006EC080911B02803280F4E0911B0281E07E
:101200008E0F80931B028091BB00F0E0E45EFD4FE7
:10121000808385EC8093BC005AC085E88093BC0035
:1012200056C00E94530880911B02803230F4E09136
:101230001B02F0E0E45EFD4F108260911B0270E043
:10124000E0918002F09181028CE192E00995109288
:101250001B023DC085E88093BC0039C084E08093C8
:10126000870210923D0210923C02E0918202F091BE
:101270008302099580913C02811105C081E0809331
:101280003C0210923E02E0913D0281E08E0F80937D
:101290003D02F0E0E25CFD4F80818093BB009091C5
:1012A0003D0280913C02981720F485EC8093BC00AD
:1012B0000EC085E88093BC000AC085EC8093BC001A
:1012C0001092870204C010921A020E944808FF91EF
:1012D000EF91BF91AF919F918F917F916F915F91AE
:1012E0004F913F912F910F900FBE0F901F90189527
:1012F00008951F920F920FB60F9211242F933F93D0
:101300004F935F936F937F938F939F93AF93BF930D
:10131000EF93FF93E0910101F09102010995FF9194
:10132000EF91BF91AF919F918F917F916F915F915D
:101330004F913F912F910F900FBE0F901F901895D6
:101340001F920F920FB60F9211242F933F934F933A
:101350005F936F937F938F939F93AF93BF93EF931D
:10136000FF93E0910301F09104010995FF91EF9142
:10137000BF91AF919F918F917F916F915F914F91AD
:101380003F912F910F900FBE0F901F901895809155
:10139000BB0290E02091BC02821B9109089520912C
:1013A000BC028091BB02281750F4E22FF0E0E35416
:1013B000FD4F808190E02F5F2093BC0208958FEF56
:1013C0009FEF0895E091BC028091BB02E81730F4D2
:1013D000F0E0E354FD4F808190E008958FEF9FEFA0
:1013E00008950895E0919402F0919502309701F1EB
:1013F0003091BC022091BB023217D0F016161706AE
:101400008CF420E030E040E0DC01A40FB11D5C91E1
:10141000D901A354BD4F5C934F5F242F30E02617B2
:10142000370794F31092BC026093BB02CB0109957D
:101430000895E0919602F0919702309729F010926A
:101440009A021092990209950895CF92DF92EF9235
:10145000FF920F931F93CF93DF938C017B016A015F
:1014600080919802882399F041155105A1F0EB0174
:10147000E40EF51E6991D801ED91FC910190F08187
:10148000E02DC8010995CE15DF05A1F704C0642F32
:10149000C7010E941408C601DF91CF911F910F91DF
:1014A000FF90EF90DF90CF900895CF93DF931F923E
:1014B000CDB7DEB76983209198022223E1F0209115
:1014C0009902203240F021E030E0FC013383228396
:1014D00080E090E017C080919A02E82FF0E0E55696
:1014E000FD4F998190838F5F80939A028093990238
:1014F00081E090E007C061E0CE0101960E941408EF
:1015000081E090E00F90DF91CF910895FC0113826C
:10151000128248EE53E060E070E0448355836683B6
:10152000778386E291E09183808308951092BC02D4
:101530001092BB0210929A02109299020E94F20736
:101540000895CF93DF93EC01862F0E94100889E164
:101550009AE00E94430882EF99E00E943E08CE0183
:101560000E94960ADF91CF9108950E94A10A0895E2
:101570007093970260939602089588E892E00E9423
:10158000860A08951F920F920FB60F9211242F937F
:101590003F938F939F93AF93BF938091DE0290917F
:1015A000DF02A091E002B091E1023091DD0223E080
:1015B000230F2D3720F40196A11DB11D05C026E88B
:1015C000230F0296A11DB11D2093DD028093DE0240
:1015D0009093DF02A093E002B093E1028091E202D7
:1015E0009091E302A091E402B091E5020196A11D61
:1015F000B11D8093E2029093E302A093E402B093C2
:10160000E502BF91AF919F918F913F912F910F90E4
:101610000FBE0F901F901895833069F028F4813029
:10162000B1F08230C1F008958730C9F08830E9F018
:10163000843001F506C0E0E8F0E080818F77808398
:101640000895E0E8F0E080818F7D8083089584B57F
:101650008F7784BD089584B58F7D84BD0895E0EBB8
:10166000F0E080818F7780830895E0EBF0E0808167
:101670008F7D808308951F93CF93DF93C62F282FEC
:1016800030E0F901E550FE4F8491F901E15FFD4F33
:101690001491F901ED5DFD4FD491DD23C9F0811165
:1016A0000E940C0B2D2F30E0F901EE0FFF1FE95CBB
:1016B000FD4FA591B4918FB7F894C11105C0EC917D
:1016C00010951E231C9303C0EC911E2B1C938FBFFF
:1016D000DF91CF911F91089504D06894B111B5C0E6
:1016E000089598D088F09F5790F0B92F9927B75157
:1016F000A0F0D1F0660F771F881F991F1AF0BA95D6
:10170000C9F712C0B13081F09FD0B1E008959CC0FC
:10171000672F782F8827B85F39F0B93FCCF38695CB
:1017200077956795B395D9F73EF490958095709528
:1017300061957F4F8F4F9F4F0895E89409C097FBA5
:101740003EF490958095709561957F4F8F4F9F4F98
:101750009923A9F0F92F96E9BB279395F6958795DC
:1017600077956795B795F111F8CFFAF4BB0F11F49F
:1017700060FF1BC06F5F7F4F8F4F9F4F16C0882346
:1017800011F096E911C0772321F09EE8872F762F7C
:1017900005C0662371F096E8862F70E060E02AF0BD
:1017A0009A95660F771F881FDAF7880F96958795A9
:1017B00097F9089597F99F6780E870E060E00895D1
:1017C0009FEF80EC089500240A9416161706180659
:1017D0000906089500240A94121613061406050635
:1017E0000895092E0394000C11F4882352F0BB0FC6
:1017F00040F4BF2B11F460FF04C06F5F7F4F8F4F29
:101800009F4F089557FD9058440F551F59F05F3F63
:1018100071F04795880F97FB991F61F09F3F79F012
:1018200087950895121613061406551FF2CF469594
:10183000F1DF08C0161617061806991FF1CF869516
:101840007105610508940895E894BB2766277727FA
:10185000CB0197F908950BD0C4CFB5DF28F0BADFDC
:1018600018F0952309F0A6CFABCF1124EECFCADF35
:10187000A0F3959FD1F3950F50E0551F629FF001A3
:10188000729FBB27F00DB11D639FAA27F00DB11DFC
:10189000AA1F649F6627B00DA11D661F829F222785
:1018A000B00DA11D621F739FB00DA11D621F839F0C
:1018B000A00D611D221F749F3327A00D611D231FE2
:1018C000849F600D211D822F762F6A2F11249F5730
:1018D00050408AF0E1F088234AF0EE0FFF1FBB1F53
:1018E000661F771F881F91505040A9F79E3F5105F2
:1018F00070F060CFAACF5F3FECF3983EDCF38695A3
:1019000077956795B795F795E7959F5FC1F7FE2B9C
:10191000880F911D9695879597F90895A1E21A2E43
:10192000AA1BBB1BFD010DC0AA1FBB1FEE1FFF1F83
:10193000A217B307E407F50720F0A21BB30BE40BD3
:10194000F50B661F771F881F991F1A9469F760951A
:101950007095809590959B01AC01BD01CF010895D4
:10196000EE0FFF1F0590F491E02D09940F931F9344
:10197000CF93DF93E091E802F091E902238121FF08
:101980001BC0EC0100E010E089916091E8027091C9
:10199000E902DB011896ED91FC911997882331F04B
:1019A0000995892B89F30FEF1FEFEECF8AE0099598
:1019B000892B11F4C80102C08FEF9FEFDF91CF9107
:0A19C0001F910F910895F894FFCFD6
:1019CA00FF7809780900000000C101B3064E0167DB
:1019DA000159019C01000000000F036572726F72C9
:1019EA00210000000000550A250AC709CF09E209AB
:0219FA00F109F1
:00000001FF
